S01A000074696E7938355F73746D5F5649525455414C2E73726563A0
S11300000FC033C032C032C030C02FC02EC02DC08C
S11300102CC02BC02AC029C028C027C026C0B101CB
S113002011241FBECFE5D2E0DEBFCDBF10E0A0E6B5
S1130030B0E0EAEBF5E002C005900D92A038B107FC
S1130040D9F720E0A0E8B0E001C01D92AD3FB207AF
S1130050E1F710E0C0E1D0E003C02197FE0196D2A1
S1130060CF30D107D1F7F5D0A6C2CACF1F920F92D5
S11300700FB60F9211242F933F934F935F936F9377
S11300807F938F939F93AF93BF93EF93FF93A5D0E9
S1130090FF91EF91BF91AF919F918F917F916F915C
S11300A05F914F913F912F910F900FBE0F901F9032
S11300B0189588B3806188BB1092FC001092FB00F5
S11300C0089588B3826088BB1092FA001092F900F8
S11300D0089588B38D7F88BB089588B3846088BBF6
S11300E01092FA001092F900089588B38B7F88BBB0
S11300F0089588B3886088BB1092FC001092FB00BE
S1130100089588B3877F88BB08951092FC001092ED
S1130110FB0008951092FA001092F90008950197D7
S113012009F05AC06F3F7F4F09F056C060E670E097
S113013084EE90E04ED168E670E080ED90E049D125
S113014060E770E08CEB90E044D168E770E088EA07
S113015090E03FD145E850E06EE071E084EA90E041
S11301600FD24AE850E061E271E080EA90E008D200
S11301704AE850E065E271E08CE990E001D245E89C
S113018050E062E171E088E990E0FAD148EA50E099
S113019064EA70E084E990E016D14CEB50E060EA48
S11301A070E080E990E00FD140ED50E06CE970E040
S11301B08CE890E008D144EE50E068E970E088E80B
S11301C090E001D164EE70E080E890E028D160ED29
S11301D070E084E890E023D108958091FB00909131
S11301E0FC0001969093FC008093FB008091F90041
S11301F09091FA0001969093FA008093F90081E0BF
S11302008093F80008954091FB005091FC0021E098
S11302104817590708F420E0822F089584EA91E0F2
S1130220F2DF089584EA91E0EEDF08954091F90049
S11302305091FA0021E04817590708F420E0822F72
S1130240089584E690E0F2DF08958EE190E0EEDF19
S11302500895CF93DF93CDB7DEB728970FB6F89400
S1130260DEBF0FBECDBF92D049E650E069E570E035
S113027084EE90E0C0D049E650E061E670E080EDA5
S113028090E0B9D045E750E06DE670E08CEB90E08B
S1130290B2D041E850E069E770E088EA90E0ABD082
S11302A084E990E09A83898341E050E0BE016F5F66
S11302B07F4F84EE90E0A5D080E990E09C838B830F
S11302C041E050E0BE016D5F7F4F80ED90E099D03A
S11302D08CE890E09E838D8341E050E0BE016B5F2B
S11302E07F4F8CEB90E08DD088E890E098878F83E7
S11302F041E050E0BE01695F7F4F88EA90E081D021
S113030060E870E084EE90E082D064E870E080ED14
S113031090E07DD064E870E08CEB90E078D060E809
S113032070E088EA90E073D064E870E084EE90E0D6
S113033072D060E070E080E890E077D040D07894AC
S11303408091F8008823E1F380E890E098D084E875
S113035090E095D01092F80098B381E0892788BB8B
S1130360EFCF6FEF7FEF81E090E0D9DE089587B3A0
S1130370816087BB87B3826087BB87B3846087BB98
S113038087B3886087BB089504D00895F0DFFCDF4D
S1130390089510BE80B7806880BF8DE78DBD8AE761
S11303A08EBD80B780BF8CB58CBD80B78F7C80BF7D
S11303B08CB58F7C8CBD89B7806489BF089580B764
S11303C0876080BF0895FC017183608353834283F7
S11303D0089528E0FC0111922A95E9F7FC0114869E
S11303E0158616861786118A108A138A128A48E09F
S11303F050E0D2D00895FC0171876087538742870B
S11304000895FC0175876487578746870895FC0122
S1130410718B608B0895FC01738B628B0895FC01D2
S113042013821282718360830895CF93DF93EC016A
S11304306115710519F4E881F98101C0FB01FB83A1
S1130440EA830084F185E02D0995EA81FB818289A4
S11304509389009719F060E070E0E7DFDF91CF91B6
S11304600895CF93DF93EC01EA81FB810284F38545
S1130470E02D09951B821A82DF91CF910895EF92A6
S1130480FF920F931F93CF93DF93EC0100E010E0F2
S1130490EA81FB81868597850817190708F069C0EA
S11304A0309799F00484F585E02DC801880F991FD1
S11304B0E80FF91F0190F081E02D0190F081E02D0B
S11304C00190F081E02D099501C080E0882309F4B2
S11304D04DC0EA81FB8182899389009709F0C1DFCD
S11304E0EA81FB810284F385E02D0995EA81FB8191
S11304F00484F585E02D7801EE0CFF1CEE0DFF1D44
S11305000190F081E02D0190F081E02D0280F381D3
S1130510E02D0995EA81FB8184859585FC01EE0D2A
S1130520FF1D0190F081E02D0280F381E02DFB831B
S1130530EA8380899189C817D90721F40084F18559
S1130540E02D0995EA80FB80F70182899389009761
S113055019F0B7016ADF0AC0CE0183DFE114F104A8
S113056029F0B701F701808991895FDF0F5F1F4F81
S11305708FCFDF91CF911F910F91FF90EF9008954E
S1130580FC0171836083538342830895EE0FFF1F40
S11305900590F491E02D0994FB01DC014150504099
S11305A048F001900D920020C9F701C01D924150FE
S10D05B05040E0F70895F894FFCFDF
S11305BA73746174655F300073746174655F3100CC
S11305CA73746174655F320073746174655F3300B8
S9030000FC
