:100000000FC033C032C04AC030C02FC02EC02DC078
:100010002CC02BC02AC029C028C027C026C02E0350
:1000200011241FBECFE5D2E0DEBFCDBF10E0A0E6B9
:10003000B0E0E8E7F6E002C005900D92AE36B107F9
:10004000D9F720E0AEE6B0E001C01D92A53EB207B0
:10005000E1F710E0C0E1D0E003C02197FE0104D336
:10006000CF30D107D1F714D005C3CACF87B3816091
:1000700087BB87B3806187BB87B3826087BB87B349
:10008000846087BB87B3886087BB2BD03FD008953F
:10009000EDDFB3D23BD07894C8D2FECF1F920F923F
:1000A0000FB60F9211242F933F934F935F936F934B
:1000B0007F938F939F93AF93BF93EF93FF93A5D2BB
:1000C000FF91EF91BF91AF919F918F917F916F9130
:1000D0005F914F913F912F910F900FBE0F901F9006
:1000E000189580B7806880BF84EF8DBD80B780BFD2
:1000F0008CB58CBD80B78F7C80BF8CB58F7C8CBD60
:1001000089B7806489BF88EC8EBD089580B78F6001
:1001100080BF0895FC0171836083538342833583DC
:10012000248380916E0090916F00019690936F00F0
:1001300080936E000895FC0171836083558344832E
:100140003783268380917000909171009C012F5F0E
:100150003F4F309371002093700093838283089502
:10016000FC01118210827583648308950F931F939D
:10017000CF93DF93EC018A0179836883DB011496C6
:10018000ED91FC91159709951B830A83DF91CF911F
:100190001F910F910895EF92FF920F931F93CF93AA
:1001A000DF938C01C0E0D0E0D80114968D919C9132
:1001B0001597C817D90708F06DC01296ED91FC91FC
:1001C00013977E01EE0CFF1CEE0DFF1D0190F081D8
:1001D000E02DA081B18112962D913C911397D80109
:1001E0008D919C91DC0112968D919C91139728170B
:1001F000390741F40280F381E02D0280F381E02D84
:10020000099501C080E0882309F442C0D801129604
:10021000ED91FC911397EE0DFF1D0190F081E02D03
:100220000190F081E02D0680F781E02D0995D8013D
:100230001296ED91FC911397EE0DFF1D0190F08148
:10024000E02D0280F381E02D0480F581E02D0995F9
:10025000D8011296ED91FC911397EE0DFF1D0190C0
:10026000F081E02D0480F581E02D0480F581E02D02
:100270000995F80182819381FC01EE0DFF1D01902B
:10028000F081E02D84819581D8018D939C9302C0EB
:1002900021968ACFDF91CF911F910F91FF90EF9020
:1002A0000895FC01718360835383428335832483E3
:1002B000089588B3826088BB0895089588B38460E8
:1002C00088BB089588B38B7F88BB88B38D7F88BB3C
:1002D000089588B3886088BB089588B3877F88BBFA
:1002E0000895089598B388E0892788BB0895809180
:1002F000E3009091E400AC0142955295507F542761
:10030000407F5427481B590B440F551F440F551F5E
:10031000480F591F440F551F440F551F60E070E0F0
:10032000032E3EE0440F551F661F771F3A95D1F705
:10033000302D81E04115544B644C744008F480E04A
:1003400008952091E3003091E400C90182959295CF
:10035000907F9827807F9827821B930B880F991F87
:10036000880F991F820F931F880F991F880F991F5D
:10037000A0E0B0E0072E7EE0880F991FAA1FBB1FE8
:100380007A95D1F7702D81159241AA47B10540F0B9
:100390008091E0009091E100892B21F080E00895A8
:1003A00080E0089581E008952091E3003091E40019
:1003B000C90182959295907F9827807F9827821B0C
:1003C000930B880F991F880F991F820F931F880F17
:1003D000991F880F991FA0E0B0E0072E7EE0880FDC
:1003E000991FAA1FBB1F7A95D1F7702D81159241D5
:1003F000AA47B10540F08091E0009091E100892B7F
:1004000021F480E0089580E0089581E008958091CE
:10041000E3009091E400AC0142955295507F54273F
:10042000407F5427481B590B440F551F440F551F3D
:10043000480F591F440F551F440F551F60E070E0CF
:10044000032E3EE0440F551F661F771F3A95D1F7E4
:10045000302D81E041155049604D734008F480E033
:1004600008952091E0003091E1002F5F3F4F3093DD
:10047000E1002093E00081E02A30310508F080E0BF
:1004800008952091E0003091E1002F5F3F4F3093BD
:10049000E1002093E00081E02A30310508F480E09B
:1004A00008951092E4001092E30008951092E40081
:1004B0001092E3001092E1001092E000089501977D
:1004C00009F09AC06F3F7F4F09F096C02DE531E0EB
:1004D00049E551E06CE670E088ED90E02CDE22E624
:1004E00031E04EE551E06CE670E080ED90E023DE17
:1004F0002DE631E049E651E06CE670E088EC90E0F2
:100500001ADE22E731E041E751E06CE670E080EC72
:1005100090E011DE21E532E047E751E06CE670E063
:100520008AEB90E0BEDE21E532E041EA51E06CE684
:1005300070E084EB90E0B5DE21E532E047E052E088
:100540006CE670E08EEA90E0ACDE21E532E041E35B
:1005500052E06CE670E088EA90E0A3DE21E532E04C
:1005600041E452E06CE670E082EA90E09ADE26E533
:1005700032E044ED51E06CE670E08CE990E091DE11
:1005800020ED30E04AEB50E068ED70E086E990E065
:10059000C1DD28EC30E044EB50E060ED70E080E934
:1005A00090E0B8DD20EC30E04EEA50E068EC70E01E
:1005B0008AE890E0AFDD20EC30E048EA50E0B90195
:1005C00084E890E0A7DD20ED30E042EA50E060EC06
:1005D00070E08EE790E09EDD28ED30E04CE950E0E1
:1005E00060ED70E088E790E095DD60916E007091BD
:1005F0006F0082E790E0B4DD089540E650E060EDE2
:1006000070E082E790E0B2DD08958091E300909180
:10061000E40001969093E4008093E30081E08093EE
:10062000E20088B3816088BB08958091E20088234E
:1006300071F01092E20082E790E0ADDD8091E3007E
:100640009091E400892B19F488B3806188BB88B34A
:100650008E7F88BB88B38F7E88BB08956FEF7FEF56
:1006600081E090E02CDF0895EE0FFF1F0590F491DC
:08067000E02D0994F894FFCF7E
:0E067800960090008A0084007E00780000004A
:00000001FF
