:100000000FC033C032C04AC030C02FC02EC02DC078
:100010002CC02BC02AC029C028C027C026C0250359
:1000200011241FBECFE5D2E0DEBFCDBF10E0A0E6B9
:10003000B0E0E6E6F6E002C005900D92AE36B107FC
:10004000D9F720E0AEE6B0E001C01D92A53EB207B0
:10005000E1F710E0C0E1D0E003C02197FE01FBD240
:10006000CF30D107D1F714D0FCC2CACF87B381609B
:1000700087BB87B3806187BB87B3826087BB87B349
:10008000846087BB87B3886087BB2BD03FD008953F
:10009000EDDFACD23BD07894BFD2FECF1F920F924F
:1000A0000FB60F9211242F933F934F935F936F934B
:1000B0007F938F939F93AF93BF93EF93FF939CD2C4
:1000C000FF91EF91BF91AF919F918F917F916F9130
:1000D0005F914F913F912F910F900FBE0F901F9006
:1000E000189580B7806880BF84EF8DBD80B780BFD2
:1000F0008CB58CBD80B78F7C80BF8CB58F7C8CBD60
:1001000089B7806489BF88EC8EBD089580B78F6001
:1001100080BF0895FC0171836083538342833583DC
:10012000248380916E0090916F00019690936F00F0
:1001300080936E000895FC0171836083558344832E
:100140003783268380917000909171009C012F5F0E
:100150003F4F309371002093700093838283089502
:10016000FC01118210827383628355834483089556
:10017000DC016D937C93DB011496ED91FC91159756
:1001800009950895EF92FF920F931F93CF93DF93FA
:100190008C01C0E0D0E0D80114968D919C91159708
:1001A000C817D90708F06DC01296ED91FC9113970E
:1001B0007E01EE0CFF1CEE0DFF1D0190F081E02D85
:1001C000A081B18112962D913C911397D8018D9108
:1001D0009C91DC0112968D919C91139728173907F9
:1001E00041F40280F381E02D0280F381E02D099536
:1001F00001C080E0882309F442C0D8011296ED9135
:10020000FC911397EE0DFF1D0190F081E02D019000
:10021000F081E02D0680F781E02D0995D801129636
:10022000ED91FC911397EE0DFF1D0190F081E02DF3
:100230000280F381E02D0480F581E02D0995D8013D
:100240001296ED91FC911397EE0DFF1D0190F08138
:10025000E02D0480F581E02D0480F581E02D0995E5
:10026000F80182819381FC01EE0DFF1D0190F08168
:10027000E02D84819581D8018D939C9302C02196B5
:100280008ACFDF91CF911F910F91FF90EF9008954A
:10029000FC017183608353834283358324830895F3
:1002A00088B3826088BB0895089588B3846088BB52
:1002B000089588B38B7F88BB88B38D7F88BB0895F2
:1002C00088B3886088BB089588B3877F88BB08950A
:1002D000089598B388E0892788BB08958091E3004A
:1002E0009091E400AC0142955295507F5427407F95
:1002F0005427481B590B440F551F440F551F480FD7
:10030000591F440F551F440F551F60E070E0032E26
:100310003EE0440F551F661F771F3A95D1F7302DE9
:1003200081E04115544B644C744008F480E008951A
:100330002091E3003091E400C90182959295907F6D
:100340009827807F9827821B930B880F991F880F0F
:10035000991F820F931F880F991F880F991FA0E084
:10036000B0E0072E7EE0880F991FAA1FBB1F7A9569
:10037000D1F7702D81159241AA47B10540F08091C7
:10038000E0009091E100892B21F080E0089580E069
:10039000089581E008952091E3003091E400C901BF
:1003A00082959295907F9827807F9827821B930B48
:1003B000880F991F880F991F820F931F880F991F0D
:1003C000880F991FA0E0B0E0072E7EE0880F991FEC
:1003D000AA1FBB1F7A95D1F7702D81159241AA47AC
:1003E000B10540F08091E0009091E100892B21F46B
:1003F00080E0089580E0089581E008958091E30011
:100400009091E400AC0142955295507F5427407F73
:100410005427481B590B440F551F440F551F480FB5
:10042000591F440F551F440F551F60E070E0032E05
:100430003EE0440F551F661F771F3A95D1F7302DC8
:1004400081E041155049604D734008F480E0089503
:100450002091E0003091E1002F5F3F4F3093E100A9
:100460002093E00081E02A30310508F080E0089513
:100470002091E0003091E1002F5F3F4F3093E10089
:100480002093E00081E02A30310508F480E00895EF
:100490001092E4001092E30008951092E40010928C
:1004A000E3001092E1001092E0000895019709F036
:1004B0009CC06F3F7F4F09F098C024E531E040E5D4
:1004C00051E06CE670E088ED90E035DE29E531E042
:1004D00045E551E06CE670E080ED90E02CDE24E62E
:1004E00031E040E651E06CE670E088EC90E023DE1D
:1004F00029E631E048E651E06CE670E080EC90E0FF
:100500001ADE28E432E04EE651E06CE670E08AEB59
:1005100090E0BEDE28E432E048E951E06CE670E0AD
:1005200084EB90E0B5DE28E432E04EEF51E06CE67B
:1005300070E08EEA90E0ACDE28E432E048E252E07F
:100540006CE670E088EA90E0A3DE28E432E048E35D
:1005500052E06CE670E082EA90E09ADE2DE432E050
:100560004BEC51E06CE670E08CE990E091DE20ED20
:1005700030E04AEB50E068ED70E086E990E0CADDDB
:1005800028EC30E044EB50E060ED70E080E990E072
:10059000C1DD20EC30E04EEA50E068EC70E08AE823
:1005A00090E0B8DD20EC30E048EA50E0B90184E8A2
:1005B00090E0B0DD20ED30E042EA50E060EC70E029
:1005C0008EE790E0A7DD28ED30E04CE950E060EDEB
:1005D00070E088E790E09EDD40916E0050916F00E2
:1005E00060E670E082E790E0BBDD089560ED70E0CA
:1005F00082E790E0BDDD08958091E3009091E400F2
:1006000001969093E4008093E30081E08093E20000
:1006100088B3816088BB08958091E200882371F0DF
:100620001092E20082E790E0ADDD8091E3009091CE
:10063000E400892B19F488B3806188BB88B38E7F6E
:1006400088BB88B38F7E88BB08956FEF7FEF81E012
:1006500090E02CDF0895EE0FFF1F0590F491E02D40
:060660000994F894FFCF9D
:0E066600960090008A0084007E00780000005C
:00000001FF
