:100000000FC033C032C04AC030C02FC02EC02DC078
:100010002CC02BC02AC029C028C027C026C0AC02D3
:1000200011241FBECFE5D2E0DEBFCDBF10E0A0E6B9
:10003000B0E0E4E7F5E002C005900D92AE36B107FE
:10004000D9F720E0AEE6B0E001C01D92A53EB207B0
:10005000E1F710E0C0E1D0E003C02197FE0182D2B9
:10006000CF30D107D1F714D083C2CACF87B3816014
:1000700087BB87B3806187BB87B3826087BB87B349
:10008000846087BB87B3886087BB2BD03FD008953F
:10009000EDDF31D23BD0789446D2FECF1F920F9243
:1000A0000FB60F9211242F933F934F935F936F934B
:1000B0007F938F939F93AF93BF93EF93FF9323D23D
:1000C000FF91EF91BF91AF919F918F917F916F9130
:1000D0005F914F913F912F910F900FBE0F901F9006
:1000E000189580B7806880BF84EF8DBD80B780BFD2
:1000F0008CB58CBD80B78F7C80BF8CB58F7C8CBD60
:1001000089B7806489BF8AE78EBD089580B78F6004
:1001100080BF0895FC0171836083538342833583DC
:10012000248380916E0090916F00019690936F00F0
:1001300080936E000895FC0171836083558344832E
:100140003783268380917000909171009C012F5F0E
:100150003F4F309371002093700093838283089502
:10016000FC01118210827583648308950F931F939D
:10017000CF93DF93EC018A0179836883DB011496C6
:10018000ED91FC91159709951B830A83DF91CF911F
:100190001F910F910895EF92FF920F931F93CF93AA
:1001A000DF938C01C0E0D0E0D80114968D919C9132
:1001B0001597C817D90708F06DC01296ED91FC91FC
:1001C00013977E01EE0CFF1CEE0DFF1D0190F081D8
:1001D000E02DA081B18112962D913C911397D80109
:1001E0008D919C91DC0112968D919C91139728170B
:1001F000390741F40280F381E02D0280F381E02D84
:10020000099501C080E0882309F442C0D801129604
:10021000ED91FC911397EE0DFF1D0190F081E02D03
:100220000190F081E02D0680F781E02D0995D8013D
:100230001296ED91FC911397EE0DFF1D0190F08148
:10024000E02D0280F381E02D0480F581E02D0995F9
:10025000D8011296ED91FC911397EE0DFF1D0190C0
:10026000F081E02D0480F581E02D0480F581E02D02
:100270000995F80182819381FC01EE0DFF1D01902B
:10028000F081E02D84819581D8018D939C9302C0EB
:1002900021968ACFDF91CF911F910F91FF90EF9020
:1002A0000895FC01718360835383428335832483E3
:1002B000089588B3826088BB0895089588B38460E8
:1002C00088BB089588B38B7F88BB88B38D7F88BB3C
:1002D000089588B3886088BB089588B3877F88BBFA
:1002E0000895089598B388E0892788BB08952091E0
:1002F000E3003091E40081E02431310508F480E02E
:1003000008958091E3009091E400029740F080917D
:10031000E0009091E100892B21F080E0089580E0D9
:10032000089581E008958091E3009091E4000297A0
:1003300040F08091E0009091E100892B21F480E071
:10034000089580E0089581E008952091E3003091C0
:10035000E40081E02031310508F480E00895209127
:10036000E0003091E1002F5F3F4F3093E100209398
:10037000E00081E02A30310508F080E00895209106
:10038000E0003091E1002F5F3F4F3093E100209378
:10039000E00081E02A30310508F480E008951092F1
:1003A000E4001092E30008951092E4001092E3003C
:1003B0001092E1001092E0000895019709F09AC0B0
:1003C0006F3F7F4F09F096C02DE531E049E551E0E0
:1003D0006CE670E088ED90E0AEDE22E631E04EE5BE
:1003E00051E06CE670E080ED90E0A5DE2DE631E0B6
:1003F00049E651E06CE670E088EC90E09CDE22E794
:1004000031E041E751E06CE670E080EC90E093DE93
:100410002FEC31E047E751E06CE670E08AEB90E0CA
:1004200040DF2FEC31E041E851E06CE670E084EB16
:1004300090E037DF2FEC31E045EA51E06CE670E008
:100440008EEA90E02EDF2FEC31E04FEA51E06CE6CF
:1004500070E088EA90E025DF2FEC31E04FEB51E0CF
:100460006CE670E082EA90E01CDF24ED31E043E9C5
:1004700051E06CE670E08CE990E013DF20ED30E0B5
:100480004AEB50E068ED70E086E990E043DE28EC4E
:1004900030E044EB50E060ED70E080E990E03ADE5F
:1004A00020EC30E04EEA50E068EC70E08AE890E042
:1004B00031DE20EC30E048EA50E0B90184E890E019
:1004C00029DE20ED30E042EA50E060EC70E08EE79B
:1004D00090E020DE28ED30E04CE950E060ED70E087
:1004E00088E790E017DE60916E0070916F0082E700
:1004F00090E036DE089540E650E060ED70E082E77F
:1005000090E034DE08958091E3009091E40001963C
:100510009093E4008093E30081E08093E20088B34D
:10052000816088BB08958091E200882371F0109269
:10053000E20082E790E02FDE8091E3009091E400FA
:10054000892B19F488B3806188BB88B38E7F88BB00
:1005500088B38F7E88BB08956FEF7FEF81E090E0D6
:100560002CDF0895EE0FFF1F0590F491E02D099404
:04057000F894FFCF2D
:0E057400960090008A0084007E00780000004F
:00000001FF
